:100000000C9434000C9451000C9451000C94510049
:100010000C9451000C9451000C9451000C9451001C
:100020000C9451000C9451000C9451000C941A0142
:100030000C9451000C9451000C9451000C945100FC
:100040000C9451000C9451000C94C5010C94510077
:100050000C9451000C9451000C9451000C945100DC
:100060000C9451000C94510011241FBECFEFD4E02A
:10007000DEBFCDBF11E0A0E0B1E0E2EDF9E002C0EB
:1000800005900D92AC37B107D9F721E0ACE7B1E0AC
:1000900001C01D92A638B207E1F70E9453000C94EC
:1000A000E7040C9400000E94AD010E94BF010E9471
:1000B0000201789430E0C0E032C08C2F90E0FC0167
:1000C000EE0FFF1FEE0FFF1FEE0FFF1FEE5FFE4F45
:1000D0002281213019F58F01349623812F932281BB
:1000E0002F9321812F93F80124812F9301969F93C1
:1000F0008F9386E391E09F938F930E940202F80111
:1001000082810E949800F80182838DB79EB708967D
:100110000FB6F8949EBF0FBE8DBF31E0CF5FC330E6
:1001200060F2313041F68AE090E00E941802C2CFBE
:1001300091E0813009F490E0892F0895FC019081CD
:100140008FEB890F8D3120F08FE9890F8D3118F4F5
:1001500020E2922790830895813421F0813621F4A2
:1001600091E003C091E001C090E0823521F0823738
:1001700021F421E003C021E001C020E0911102C080
:10018000222319F08093000109C0282F30E020536A
:1001900031091216130614F48093010180910101B4
:1001A000882349F1EFECE80FF0E09091000121E0A5
:1001B000913409F020E0EE0FFF1FEE0FFF1FEE0F4E
:1001C000FF1FEE5FFE4F2383913419F424E531E0E5
:1001D00002C02CE531E03F932F931F928F9385E669
:1001E00091E09F938F930E9402020F900F900F90C7
:1001F0000F900F900F900895EFE6F0E080818260FD
:1002000080830895E1E8F0E0808184608083A8E83D
:10021000B0E08D919C9111978462946F11969C939C
:100220008E9380818860808384B1816084B90E94CC
:10023000FC0008951F920F920FB60F9211240F9396
:100240001F932F933F934F935F936F937F938F935E
:100250009F93AF93BF93CF93EF93FF9380917C01D4
:1002600090917D01A0917E01B0917F010196A11D29
:10027000B11D80937C0190937D01A0937E01B0938A
:100280007F01C0E027C08C2F90E0FC01EE0FFF1F24
:10029000EE0FFF1FEE0FFF1FEE5FFE4F23812223A5
:1002A000C1F08F010190F081E02D60917C0170918F
:1002B0007D0180917E0190917F010995F801648311
:1002C00075838683978382810E949800D801129655
:1002D0008C93CF5FC330B8F27894FF91EF91CF91B8
:1002E000BF91AF919F918F917F916F915F914F914E
:1002F0003F912F911F910F910F900FBE0F901F9064
:100300001895089595B181E0892785B960E070E07E
:10031000CB01089560E070E0CB0108958091C000AA
:100320008823E4F78091C60090E008959091C00082
:1003300095FFFCCF8093C60080E090E0089588E2AE
:1003400091E0909383018093820108958AE191E086
:100350009093810180938001089587E68093C40083
:100360001092C5001092C00088E18093C10086E021
:100370008093C2000E949F010E94A6010895E1ECB3
:10038000F0E080818068808308951F920F920FB6FD
:100390000F9211240F931F932F933F934F935F93CB
:1003A0006F937F938F939F93AF93BF93EF93FF933D
:1003B000CF93DF931F92CDB7DEB706EC10E0F801C4
:1003C000808189830E94AC00CE0101960E949E002C
:1003D0008981F801808378940F90DF91CF91FF910C
:1003E000EF91BF91AF919F918F917F916F915F91AD
:1003F0004F913F912F911F910F910F900FBE0F9032
:100400001F901895A0E0B0E0E8E0F2E00C94C00482
:10041000AE014B5F5F4FFA0161917191AF01809125
:100420008201909183010E941F02E2E00C94DC049F
:1004300060918201709183010E9416040895ABE0DF
:10044000B0E0E5E2F2E00C94B0046C017B018A01BB
:10045000FC0117821682838181FFCCC1CE010196F7
:100460003C01F6019381F70193FD859193FF819102
:100470007F01882309F4BAC1853239F493FD85914F
:1004800093FF81917F01853229F4B60190E00E94AB
:100490001604E7CF912C212C312CFFE1F315D8F075
:1004A0008B3279F038F4803279F08332A1F4232D45
:1004B00020611DC08D3261F0803369F4232D2160ED
:1004C00016C0832D8260382EE32DE4603E2E2AC0B4
:1004D000F32DF8601DC037FC2DC020ED280F2A3009
:1004E00040F08E32B9F436FC81C1232D2064322EC7
:1004F00019C036FE06C08AE0989E200D1124922E67
:1005000011C0EAE02E9E200D1124222EF32DF06260
:100510003F2E08C08C3621F4832D8068382E02C00F
:10052000883641F4F70193FD859193FF81917F0116
:100530008111B3CF982F9F7D9554933028F40C5F91
:100540001F4F9FE399830DC0833631F0833771F0DD
:10055000833509F059C021C0F801808189830E5F7D
:100560001F4F88248394912C530113C02801F2E07B
:100570004F0E511CF801A080B18036FE03C0692DDA
:1005800070E002C06FEF7FEFC5010E940B044C01C9
:100590008201F32DFF773F2E16C0280122E0420E84
:1005A000511CF801A080B18036FE03C0692D70E0B7
:1005B00002C06FEF7FEFC5010E9400044C01F32DD4
:1005C000F0683F2E820133FC1BC0822D90E088161C
:1005D0009906B0F4B60180E290E00E9416042A94D5
:1005E000F4CFF50137FC859137FE81915F01B601AB
:1005F00090E00E94160421102A9421E0821A9108AA
:100600008114910471F7E8C0843611F0893641F500
:10061000F80137FE07C060817181828193810C5F90
:100620001F4F08C060817181072E000C880B990B49
:100630000E5F1F4FF32DFF763F2E97FF09C0909559
:100640008095709561957F4F8F4F9F4FF0683F2E3B
:100650002AE030E0A3010E945204882E861845C08B
:10066000853731F4232D2F7EB22E2AE030E025C0CD
:10067000932D997FB92E8F36C1F018F4883579F013
:10068000B5C0803719F0883721F0B0C0E92FE0619C
:10069000BE2EB4FE0DC0FB2DF460BF2E09C034FE8B
:1006A0000AC0292F2660B22E06C028E030E005C01F
:1006B00020E130E002C020E132E0F801B7FE07C0DF
:1006C00060817181828193810C5F1F4F06C06081C0
:1006D000718180E090E00E5F1F4FA3010E945204E1
:1006E000882E8618FB2DFF773F2E36FE0DC0232D5A
:1006F0002E7FA22E891458F434FE0BC032FC09C0A0
:10070000832D8E7EA82E05C0B82CA32C03C0B82C38
:1007100001C0B92CA4FE0FC0FE01E80DF11D8081BF
:10072000803321F49A2D997EA92E09C0A2FE06C01D
:10073000B394B39404C08A2D867809F0B394A3FCD3
:1007400011C0A0FE06C0B21488F4280C922C9B188D
:100750000EC0B21460F4B60180E290E00E9416046C
:10076000B394F7CFB21418F42B1802C0982C212C94
:10077000A4FE10C0B60180E390E00E941604A2FE21
:1007800017C0A1FC03C088E790E002C088E590E0B4
:10079000B6010CC08A2D867859F0A1FE02C08BE20A
:1007A00001C080E2A7FC8DE2B60190E00E94160431
:1007B000891438F4B60180E390E00E9416049A94FC
:1007C000F7CF8A94F301E80DF11D8081B60190E026
:1007D0000E9416048110F5CF222009F442CEB60102
:1007E00080E290E00E9416042A94F6CFF6018681FA
:1007F000978102C08FEF9FEF2B96E2E10C94CC041F
:10080000FC010590615070400110D8F780959095DB
:100810008E0F9F1F0895FC016150704001900110E0
:10082000D8F7809590958E0F9F1F08950F931F9373
:10083000CF93DF93FB01238121FD03C08FEF9FEF57
:100840002CC022FF16C04681578124813581421772
:10085000530744F4A081B1819D012F5F3F4F318345
:1008600020838C93268137812F5F3F4F37832683E8
:1008700014C08B01EC01FB010084F185E02D09958A
:10088000892BE1F6D80116968D919C9117970196C8
:1008900017969C938E931697CE01DF91CF911F915F
:1008A0000F910895FA01AA27283051F1203181F1E2
:1008B000E8946F936E7F6E5F7F4F8F4F9F4FAF4F68
:1008C000B1E03ED0B4E03CD0670F781F891F9A1F7B
:1008D000A11D680F791F8A1F911DA11D6A0F711D2F
:1008E000811D911DA11D20D009F468943F912AE03B
:1008F000269F11243019305D3193DEF6CF01089523
:10090000462F4770405D4193B3E00FD0C9F7F6CF53
:10091000462F4F70405D4A3318F0495D31FD40521B
:10092000419302D0A9F7EACFB4E0A69597958795B1
:1009300077956795BA95C9F7009761057105089590
:100940009B01AC010A2E069457954795379527953C
:10095000BA95C9F7620F731F841F951FA01D0895D4
:100960002F923F924F925F926F927F928F929F92BF
:10097000AF92BF92CF92DF92EF92FF920F931F93AD
:10098000CF93DF93CDB7DEB7CA1BDB0B0FB6F8945E
:10099000DEBF0FBECDBF09942A88398848885F849E
:1009A0006E847D848C849B84AA84B984C884DF800F
:1009B000EE80FD800C811B81AA81B981CE0FD11DF3
:1009C0000FB6F894DEBF0FBECDBFED010895F894C9
:0209D000FFCF57
:1009D2004930810100010000000082010001000095
:1009E20000008A0100010000000000000001000078
:1009F200000000008E010000000000020000000064
:100A020096010000000043616C6C6261636B2564B7
:100A120020747275652E20526573756C743A2025A8
:100A22006C640A00656E61626C656400646973617E
:100A3200626C65640043616C6C6261636B25632068
:0C0A42006973206E6F772025732E000072
:00000001FF
