:020000020000FC
:0200000069C0D5
:040040000C944E00CE
:100068001F93112714BD16BD15E015BD11E015BB72
:100078001F9108951F9310916E00116010936E00E8
:100088001F9108951F9310916E001E7F10936E00AC
:100098001F910895F8940F931F93009100011091F8
:1000A8000101011761F4002700930001009102018A
:1000B80018E001270093020105B90C946600039526
:1000C800009300011F910F91789418950FEF0DBFC1
:1000D80004E00EBF0FEF04B9009505B900930201C3
:1000E80000E0009300010DE300930101B9DFC2DFD6
:0400F8007894FFCF2A
:00000001FF
