:100000000C9434000C9451000C9451000C94510049
:100010000C9451000C9451000C9451000C9451001C
:100020000C9451000C9451000C9451000C9451000C
:100030000C9451000C9451000C9451000C945100FC
:100040000C9451000C9451000C9451000C945100EC
:100050000C9451000C9451000C9451000C945100DC
:100060000C9451000C94510011241FBECFEFD4E02A
:10007000DEBFCDBF13E0A0E0B1E0E6E1F8E002C0F2
:1000800005900D92AC37B107D9F723E0ACE7B3E0A8
:1000900001C01D92A238B207E1F70E94FD000C9446
:1000A00009040C940000CF93DF93C0E0D0E005C0BA
:1000B0008AE090E00E943A012196C431D105C4F350
:1000C000DF91CF910895EF92FF920F931F93CF93FB
:1000D000DF93CDB7DEB76B970FB6F894DEBF0FBED8
:1000E000CDBF85E1E6E6F3E0DE01119601900D92C9
:1000F0008A95E1F786E0EEE0F1E0DE0156960190A8
:100100000D928A95E1F71F9285E18F938EED92E033
:100110009F938F930E9424011F9286E08F938FEF0D
:1001200092E09F938F930E9424010FB6F894DEBF54
:100130000FBECDBF00E010E0FE01319621C07F016F
:100140003FEFE31AF30A80811F928F931F930F935F
:1001500081E090E08C0F9D1F800F911F9F938F93E4
:100160001F930F9380E293E09F938F930E9424014B
:100170000F5F1F4F0FB6F894DEBF0FBECDBFF70164
:1001800005311105E0F200E010E0FE01769625C091
:10019000C801880F991F26E130E02C0F3D1F820F08
:1001A000931F7F0132E0E30EF11C21812F93208108
:1001B0002F931F930F939F938F931F930F9383E41A
:1001C00093E09F938F930E9424010F5F1F4F0FB600
:1001D000F894DEBF0FBECDBFF70103301105C0F2AA
:1001E0006B960FB6F894DEBF0FBECDBFDF91CF91F7
:1001F0001F910F91FF90EF9008950E9414010E94AB
:1002000053000E946300FFCF9091C00095FFFCCF88
:100210008093C60080E090E0089580E091E09093A4
:100220007F0380937E03089587E68093C400109235
:10023000C5001092C00088E18093C10086E08093E1
:10024000C2000E940D010895A0E0B0E0EAE2F1E0F2
:100250000C94E203AE014B5F5F4FFA016191719123
:10026000AF0180917E0390917F030E944101E2E003
:100270000C94FE0360917E0370917F030E9438030B
:100280000895ABE0B0E0E7E4F1E00C94D2036C0138
:100290007B018A01FC0117821682838181FFCCC118
:1002A000CE0101963C01F6019381F70193FD859102
:1002B00093FF81917F01882309F4BAC1853239F413
:1002C00093FD859193FF81917F01853229F4B601D9
:1002D00090E00E943803E7CF912C212C312CFFE1D4
:1002E000F315D8F08B3279F038F4803279F083321C
:1002F000A1F4232D20611DC08D3261F0803369F49B
:10030000232D216016C0832D8260382EE32DE460FA
:100310003E2E2AC0F32DF8601DC037FC2DC020ED05
:10032000280F2A3040F08E32B9F436FC81C1232DDB
:100330002064322E19C036FE06C08AE0989E200D39
:100340001124922E11C0EAE02E9E200D1124222E9F
:10035000F32DF0623F2E08C08C3621F4832D806887
:10036000382E02C0883641F4F70193FD859193FF42
:1003700081917F018111B3CF982F9F7D9554933048
:1003800028F40C5F1F4F9FE399830DC0833631F033
:10039000833771F0833509F059C021C0F80180819D
:1003A00089830E5F1F4F88248394912C530113C0BF
:1003B0002801F2E04F0E511CF801A080B18036FEFA
:1003C00003C0692D70E002C06FEF7FEFC5010E948E
:1003D0002D034C018201F32DFF773F2E16C028011B
:1003E00022E0420E511CF801A080B18036FE03C00D
:1003F000692D70E002C06FEF7FEFC5010E942203FC
:100400004C01F32DF0683F2E820133FC1BC0822D7E
:1004100090E088169906B0F4B60180E290E00E9460
:1004200038032A94F4CFF50137FC859137FE81918A
:100430005F01B60190E00E94380321102A9421E068
:10044000821A91088114910471F7E8C0843611F082
:10045000893641F5F80137FE07C0608171818281DC
:1004600093810C5F1F4F08C060817181072E000CC3
:10047000880B990B0E5F1F4FF32DFF763F2E97FFD2
:1004800009C090958095709561957F4F8F4F9F4FD4
:10049000F0683F2E2AE030E0A3010E947403882E0A
:1004A000861845C0853731F4232D2F7EB22E2AE0E1
:1004B00030E025C0932D997FB92E8F36C1F018F406
:1004C000883579F0B5C0803719F0883721F0B0C091
:1004D000E92FE061BE2EB4FE0DC0FB2DF460BF2EEF
:1004E00009C034FE0AC0292F2660B22E06C028E0BB
:1004F00030E005C020E130E002C020E132E0F80148
:10050000B7FE07C060817181828193810C5F1F4FAC
:1005100006C06081718180E090E00E5F1F4FA301F3
:100520000E947403882E8618FB2DFF773F2E36FE1F
:100530000DC0232D2E7FA22E891458F434FE0BC03B
:1005400032FC09C0832D8E7EA82E05C0B82CA32CAA
:1005500003C0B82C01C0B92CA4FE0FC0FE01E80DE9
:10056000F11D8081803321F49A2D997EA92E09C036
:10057000A2FE06C0B394B39404C08A2D867809F015
:10058000B394A3FC11C0A0FE06C0B21488F4280CDA
:10059000922C9B180EC0B21460F4B60180E290E079
:1005A0000E943803B394F7CFB21418F42B1802C08A
:1005B000982C212CA4FE10C0B60180E390E00E948C
:1005C0003803A2FE17C0A1FC03C088E790E002C078
:1005D00088E590E0B6010CC08A2D867859F0A1FE1E
:1005E00002C08BE201C080E2A7FC8DE2B60190E080
:1005F0000E943803891438F4B60180E390E00E9429
:1006000038039A94F7CF8A94F301E80DF11D8081A5
:10061000B60190E00E9438038110F5CF222009F442
:1006200042CEB60180E290E00E9438032A94F6CFD1
:10063000F6018681978102C08FEF9FEF2B96E2E152
:100640000C94EE03FC010590615070400110D8F746
:10065000809590958E0F9F1F0895FC01615070400A
:1006600001900110D8F7809590958E0F9F1F0895E7
:100670000F931F93CF93DF93FB01238121FD03C0D1
:100680008FEF9FEF2CC022FF16C046815781248137
:1006900035814217530744F4A081B1819D012F5F3A
:1006A0003F4F318320838C93268137812F5F3F4FCB
:1006B0003783268314C08B01EC01FB010084F18594
:1006C000E02D0995892BE1F6D80116968D919C9124
:1006D0001797019617969C938E931697CE01DF91EC
:1006E000CF911F910F910895FA01AA27283051F157
:1006F000203181F1E8946F936E7F6E5F7F4F8F4F53
:100700009F4FAF4FB1E03ED0B4E03CD0670F781FB1
:10071000891F9A1FA11D680F791F8A1F911DA11D96
:100720006A0F711D811D911DA11D20D009F46894CF
:100730003F912AE0269F11243019305D3193DEF677
:10074000CF010895462F4770405D4193B3E00FD02D
:10075000C9F7F6CF462F4F70405D4A3318F0495D18
:1007600031FD4052419302D0A9F7EACFB4E0A695FB
:100770009795879577956795BA95C9F7009761051D
:10078000710508959B01AC010A2E06945795479573
:1007900037952795BA95C9F7620F731F841F951F68
:1007A000A01D08952F923F924F925F926F927F9279
:1007B0008F929F92AF92BF92CF92DF92EF92FF9271
:1007C0000F931F93CF93DF93CDB7DEB7CA1BDB0B1D
:1007D0000FB6F894DEBF0FBECDBF09942A883988C2
:1007E00048885F846E847D848C849B84AA84B984C9
:1007F000C884DF80EE80FD800C811B81AA81B981D5
:10080000CE0FD11D0FB6F894DEBF0FBECDBFED01E8
:060810000895F894FFCFEB
:1008160000000002000000000401000000000100CA
:10082600020003000A696E74202A695F7074720AF6
:100836000941646472657373653A2025782C200A31
:100846000941646472657373656E20646572206223
:100856006C697665722070656765742070E53A206C
:1008660025782C200A09496E64686F6C64657420CB
:1008760061662061646472657373656E2064657277
:1008860020626C697665722070656765742070E514
:100896003A202578200A0A000A63686172202A63D2
:1008A6005F7074720A0941646472657373653A20F5
:1008B60025782C200A0941646472657373656E207D
:1008C60064657220626C697665722070656765740E
:1008D6002070E53A2025782C200A09496E64686F55
:1008E6006C64657420616620616464726573736507
:1008F6006E2064657220626C697665722070656729
:1009060065742070E53A202578200A0A0074616C27
:100916002031203D2025642C2074616C32203D203E
:1009260025642E20526573756C746174657420613C
:100936006620506C7573203D2025640A0074616C36
:100946002031203D2025642C2074616C32203D200E
:1009560025642E20526573756C746174657420610C
:10096600662070506C7573203D2025640A00C66EA3
:100976006472657220692064656E206C6F6B616CB1
:1009860065206B6F706900C66E647265722069209F
:1009960064656E206F726967696E616C6520766149
:1009A60072696162656C00646F53747566663A0AB3
:1009B60058203D2025642C2059203D2025642C20DC
:1009C6005A203D2025640A0A00707472446F5374DD
:1009D6007566663A0A58203D2025642C2059203D2C
:1009E6002025642C205A203D2025640A0A006344F1
:1009F6006174612068617220256420627974657370
:100A0600697A6520656C656D656E7465720A006944
:100A1600446174612068617220256420627974657E
:100A260073697A6520656C656D656E7465720A001A
:100A36002663446174615B25645D203D2030782522
:100A4600782C2063446174615B25645D203D20251C
:100A5600630A002669446174615B25645D203D205C
:100A6600307825782C2069446174615B25645D20AB
:100A76003D2025640A00506F696E746572732061AB
:0C0A8600726520656173792061730000C7
:00000001FF
