S00F0000506F696E7465722E7372656334
S11300000C9434000C9451000C9451000C94510045
S11300100C9451000C9451000C9451000C94510018
S11300200C9451000C9451000C9451000C94510008
S11300300C9451000C9451000C9451000C945100F8
S11300400C9451000C9451000C9451000C945100E8
S11300500C9451000C9451000C9451000C945100D8
S11300600C9451000C94510011241FBECFEFD4E026
S1130070DEBFCDBF11E0A0E0B1E0EEE4F7E002C0E6
S113008005900D92A83FB107D9F721E0A8EFB1E0A0
S113009001C01D92AE3FB207E1F70E9463000C94C9
S11300A0A5030C940000CF93DF93C0E0D0E005C01B
S11300B08AE090E00E94D6002196C431D105C4F3B1
S11300C0DF91CF910895CF93DF9300D000D000D07B
S11300D0CDB7DEB70E94B0000E94530083E39CECCE
S11300E09E838D83CE0105969A8389839E012F5F1B
S11300F03F4F3C832B834CEC4F9343E34F939F93AD
S11301008F933F932F938EE091E09F938F930E9460
S1130110C000EB81FC8180811F928F93FF93EF934A
S1130120CE0103969F938F9382E891E09F938F93E0
S11301300E94C0000FB6F894DEBF0FBECDBFFFCF44
S11301409091C00095FFFCCF8093C60080E090E0C2
S1130150089580E091E09093FB018093FA01089563
S113016087E68093C4001092C5001092C00088E115
S11301708093C10086E08093C2000E94A900089584
S1130180A0E0B0E0E6ECF0E00C947E03AE014B5F3F
S11301905F4FFA0161917191AF018091FA019091E1
S11301A0FB010E94DD00E2E00C949A036091FA01E5
S11301B07091FB010E94D4020895ABE0B0E0E3EE3D
S11301C0F0E00C946E036C017B018A01FC01178240
S11301D01682838181FFCCC1CE0101963C01F601D8
S11301E09381F70193FD859193FF81917F0188238A
S11301F009F4BAC1853239F493FD859193FF819155
S11302007F01853229F4B60190E00E94D402E7CF41
S1130210912C212C312CFFE1F315D8F08B3279F09D
S113022038F4803279F08332A1F4232D20611DC08B
S11302308D3261F0803369F4232D216016C0832D43
S11302408260382EE32DE4603E2E2AC0F32DF86040
S11302501DC037FC2DC020ED280F2A3040F08E320F
S1130260B9F436FC81C1232D2064322E19C036FE28
S113027006C08AE0989E200D1124922E11C0EAE057
S11302802E9E200D1124222EF32DF0623F2E08C045
S11302908C3621F4832D8068382E02C0883641F4D0
S11302A0F70193FD859193FF81917F018111B3CF74
S11302B0982F9F7D9554933028F40C5F1F4F9FE334
S11302C099830DC0833631F0833771F0833509F09B
S11302D059C021C0F801808189830E5F1F4F882493
S11302E08394912C530113C02801F2E04F0E511C4A
S11302F0F801A080B18036FE03C0692D70E002C011
S11303006FEF7FEFC5010E94C9024C018201F32DFA
S1130310FF773F2E16C0280122E0420E511CF8013F
S1130320A080B18036FE03C0692D70E002C06FEF7B
S11303307FEFC5010E94BE024C01F32DF0683F2EF1
S1130340820133FC1BC0822D90E088169906B0F41C
S1130350B60180E290E00E94D4022A94F4CFF50121
S113036037FC859137FE81915F01B60190E00E94D0
S1130370D40221102A9421E0821A91088114910454
S113038071F7E8C0843611F0893641F5F80137FE7B
S113039007C060817181828193810C5F1F4F08C007
S11303A060817181072E000C880B990B0E5F1F4F23
S11303B0F32DFF763F2E97FF09C090958095709599
S11303C061957F4F8F4F9F4FF0683F2E2AE030E0BA
S11303D0A3010E941003882E861845C0853731F486
S11303E0232D2F7EB22E2AE030E025C0932D997F55
S11303F0B92E8F36C1F018F4883579F0B5C080373E
S113040019F0883721F0B0C0E92FE061BE2EB4FEA8
S11304100DC0FB2DF460BF2E09C034FE0AC0292F85
S11304202660B22E06C028E030E005C020E130E0AE
S113043002C020E132E0F801B7FE07C0608171819B
S1130440828193810C5F1F4F06C06081718180E0BF
S113045090E00E5F1F4FA3010E941003882E8618A0
S1130460FB2DFF773F2E36FE0DC0232D2E7FA22EAF
S1130470891458F434FE0BC032FC09C0832D8E7EDF
S1130480A82E05C0B82CA32C03C0B82C01C0B92CCD
S1130490A4FE0FC0FE01E80DF11D8081803321F41C
S11304A09A2D997EA92E09C0A2FE06C0B394B394D6
S11304B004C08A2D867809F0B394A3FC11C0A0FE71
S11304C006C0B21488F4280C922C9B180EC0B214E7
S11304D060F4B60180E290E00E94D402B394F7CFB6
S11304E0B21418F42B1802C0982C212CA4FE10C0AE
S11304F0B60180E390E00E94D402A2FE17C0A1FCE2
S113050003C088E790E002C088E590E0B6010CC023
S11305108A2D867859F0A1FE02C08BE201C080E2E8
S1130520A7FC8DE2B60190E00E94D402891438F44D
S1130530B60180E390E00E94D4029A94F7CF8A94A3
S1130540F301E80DF11D8081B60190E00E94D40210
S11305508110F5CF222009F442CEB60180E290E06A
S11305600E94D4022A94F6CFF6018681978102C0B4
S11305708FEF9FEF2B96E2E10C948A03FC01059028
S1130580615070400110D8F7809590958E0F9F1F91
S11305900895FC016150704001900110D8F78095D6
S11305A090958E0F9F1F08950F931F93CF93DF9302
S11305B0FB01238121FD03C08FEF9FEF2CC022FF9D
S11305C016C046815781248135814217530744F46C
S11305D0A081B1819D012F5F3F4F318320838C9394
S11305E0268137812F5F3F4F3783268314C08B01C9
S11305F0EC01FB010084F185E02D0995892BE1F6DE
S1130600D80116968D919C911797019617969C93F5
S11306108E931697CE01DF91CF911F910F9108957C
S1130620FA01AA27283051F1203181F1E8946F931F
S11306306E7F6E5F7F4F8F4F9F4FAF4FB1E03ED0C5
S1130640B4E03CD0670F781F891F9A1FA11D680F63
S1130650791F8A1F911DA11D6A0F711D811D911D96
S1130660A11D20D009F468943F912AE0269F11240B
S11306703019305D3193DEF6CF010895462F47706F
S1130680405D4193B3E00FD0C9F7F6CF462F4F70CA
S1130690405D4A3318F0495D31FD4052419302D028
S11306A0A9F7EACFB4E0A6959795879577956795CE
S11306B0BA95C9F700976105710508959B01AC01CE
S11306C00A2E06945795479537952795BA95C9F7F5
S11306D0620F731F841F951FA01D08952F923F92D0
S11306E04F925F926F927F928F929F92AF92BF923E
S11306F0CF92DF92EF92FF920F931F93CF93DF93EA
S1130700CDB7DEB7CA1BDB0B0FB6F894DEBF0FBE46
S1130710CDBF09942A88398848885F846E847D8493
S11307208C849B84AA84B984C884DF80EE80FD8095
S11307300C811B81AA81B981CE0FD11D0FB6F8940B
S1110740DEBF0FBECDBFED010895F894FFCFCC
S113074E0000000200000000A000000000000A6982
S113075E6E74202A695F7074720A0941646472654A
S113076E7373653A2025782C200A094164647265F6
S113077E7373656E2064657220626C69766572208F
S113078E70656765742070E53A2025782C200A0977
S113079E496E64686F6C646574206166206164647C
S11307AE72657373656E2064657220626C6976651A
S11307BE722070656765742070E53A202578200AEA
S11307CE0A000A63686172202A635F7074720A09F0
S11307DE41646472657373653A2025782C200A0986
S11307EE41646472657373656E2064657220626C15
S11307FE697665722070656765742070E53A202508
S113080E782C200A09496E64686F6C6465742061E3
S113081E662061646472657373656E20646572200C
S113082E626C697665722070656765742070E53A4E
S10B083E202578200A0A0000BD
S9030000FC
