S0120000496E74657272757074732E73726563D2
S11300000C9434000C9451000C9451000C94510045
S11300100C9451000C9451000C9451000C94510018
S11300200C9451000C9451000C9451000C947900E0
S11300300C9451000C9451000C9451000C945100F8
S11300400C9451000C9451000C9414010C94510024
S11300500C9451000C9451000C9451000C945100D8
S11300600C9451000C94510011241FBECFEFD4E026
S1130070DEBFCDBF11E0A0E0B1E0E2E7F8E002C0EE
S113008005900D92A03AB107D9F721E0A0EAB1E0BA
S113009001C01D92A83AB207E1F70E9453000C94E4
S11300A037040C9400000E94FC000E940E010E9480
S11300B061007894FFCFEFE6F0E080818260808376
S11300C00895E1E8F0E0808184608083A8E8B0E0EE
S11300D08D919C9111978462946F11969C938E9349
S11300E080818860808384B1816084B90E945B00D0
S11300F008951F920F920FB60F9211242F933F93DE
S11301004F935F936F937F938F939F93AF93BF931B
S1130110CF93DF93EF93FF938091A0019091A1017E
S113012001969093A1018093A00195B181E0892764
S113013085B9C0E0D0E00EC0FE01EE0FFF1FE05015
S1130140FF4F0190F081E02D8091A0019091A101D9
S113015009952196C330D10578F37894FF91EF91F6
S1130160DF91CF91BF91AF919F918F917F916F91CB
S11301705F914F913F912F910F900FBE0F901F9061
S113018018959F938F9382E291E09F938F930E949F
S113019029010F900F900F900F900895429721F42A
S11301A08BE491E00E943F0108958534910521F488
S11301B08AE791E00E943F0108958091C00088235E
S11301C0E4F78091C60090E008959091C00095FFF7
S11301D0FCCF8093C60080E090E0089584E191E034
S11301E09093A5018093A401089586E091E09093F3
S11301F0A3018093A201089587E68093C40010921E
S1130200C5001092C00088E18093C10086E080930D
S1130210C2000E94EE000E94F5000895E1ECF0E0B7
S113022080818068808308951F920F920FB60F9289
S113023011248F93EF93FF93E6ECF0E080818083A9
S11302407894FF91EF918F910F900FBE0F901F90B4
S11302501895A0E0B0E0EFE2F1E00C941004AE01D8
S11302604B5F5F4FFA0161917191AF018091A401DD
S11302709091A5010E946F01E2E00C942C040F936D
S11302801F93CF93DF93E091A401F091A501238103
S113029021FF1BC08C01D0E0C0E0F80181918F01E7
S11302A06091A4017091A501DB011896ED91FC9178
S11302B01997882331F00995892B79F3DFEFCFEF74
S11302C0ECCF8AE00995892B19F08FEF9FEF02C0DC
S11302D08D2F9C2FDF91CF911F910F910895ABE04B
S11302E0B0E0E5E7F1E00C9400046C017B018A01C5
S11302F0FC0117821682838181FFCCC1CE01019655
S11303003C01F6019381F70193FD859193FF81915F
S11303107F01882309F4BAC1853239F493FD8591AC
S113032093FF81917F01853229F4B60190E00E9408
S11303306603E7CF912C212C312CFFE1F315D8F083
S11303408B3279F038F4803279F08332A1F4232DA2
S113035020611DC08D3261F0803369F4232D21604A
S113036016C0832D8260382EE32DE4603E2E2AC011
S1130370F32DF8601DC037FC2DC020ED280F2A3066
S113038040F08E32B9F436FC81C1232D2064322E24
S113039019C036FE06C08AE0989E200D1124922EC4
S11303A011C0EAE02E9E200D1124222EF32DF062BE
S11303B03F2E08C08C3621F4832D8068382E02C06D
S11303C0883641F4F70193FD859193FF81917F0174
S11303D08111B3CF982F9F7D9554933028F40C5FEF
S11303E01F4F9FE399830DC0833631F0833771F03B
S11303F0833509F059C021C0F801808189830E5FDB
S11304001F4F88248394912C530113C02801F2E0D8
S11304104F0E511CF801A080B18036FE03C0692D37
S113042070E002C06FEF7FEFC5010E945B034C01D7
S11304308201F32DFF773F2E16C0280122E0420EE1
S1130440511CF801A080B18036FE03C0692D70E014
S113045002C06FEF7FEFC5010E9450034C01F32DE2
S1130460F0683F2E820133FC1BC0822D90E0881679
S11304709906B0F4B60180E290E00E9466032A94E3
S1130480F4CFF50137FC859137FE81915F01B60108
S113049090E00E94660321102A9421E0821A9108B8
S11304A08114910471F7E8C0843611F0893641F55E
S11304B0F80137FE07C060817181828193810C5FEE
S11304C01F4F08C060817181072E000C880B990BA7
S11304D00E5F1F4FF32DFF763F2E97FF09C09095B7
S11304E08095709561957F4F8F4F9F4FF0683F2E99
S11304F02AE030E0A3010E94A203882E861845C09A
S1130500853731F4232D2F7EB22E2AE030E025C02A
S1130510932D997FB92E8F36C1F018F4883579F070
S1130520B5C0803719F0883721F0B0C0E92FE061F9
S1130530BE2EB4FE0DC0FB2DF460BF2E09C034FEE8
S11305400AC0292F2660B22E06C028E030E005C07C
S113055020E130E002C020E132E0F801B7FE07C03C
S113056060817181828193810C5F1F4F06C060811D
S1130570718180E090E00E5F1F4FA3010E94A203EF
S1130580882E8618FB2DFF773F2E36FE0DC0232DB7
S11305902E7FA22E891458F434FE0BC032FC09C0FD
S11305A0832D8E7EA82E05C0B82CA32C03C0B82C96
S11305B001C0B92CA4FE0FC0FE01E80DF11D80811D
S11305C0803321F49A2D997EA92E09C0A2FE06C07B
S11305D0B394B39404C08A2D867809F0B394A3FC31
S11305E011C0A0FE06C0B21488F4280C922C9B18EB
S11305F00EC0B21460F4B60180E290E00E9466037B
S1130600B394F7CFB21418F42B1802C0982C212CF1
S1130610A4FE10C0B60180E390E00E946603A2FE2F
S113062017C0A1FC03C088E790E002C088E590E011
S1130630B6010CC08A2D867859F0A1FE02C08BE267
S113064001C080E2A7FC8DE2B60190E00E9466033F
S1130650891438F4B60180E390E00E9466039A940A
S1130660F7CF8A94F301E80DF11D8081B60190E083
S11306700E9466038110F5CF222009F442CEB60110
S113068080E290E00E9466032A94F6CFF601868108
S1130690978102C08FEF9FEF2B96E2E10C941C042C
S11306A0FC010590615070400110D8F78095909539
S11306B08E0F9F1F0895FC0161507040019001103E
S11306C0D8F7809590958E0F9F1F08950F931F93D1
S11306D0CF93DF93FB01238121FD03C08FEF9FEFB5
S11306E02CC022FF16C046815781248135814217D0
S11306F0530744F4A081B1819D012F5F3F4F3183A3
S113070020838C93268137812F5F3F4F3783268345
S113071014C08B01EC01FB010084F185E02D0995E7
S1130720892BE1F6D80116968D919C911797019625
S113073017969C938E931697CE01DF91CF911F91BC
S11307400F910895FA01AA27283051F1203181F13F
S1130750E8946F936E7F6E5F7F4F8F4F9F4FAF4FC5
S1130760B1E03ED0B4E03CD0670F781F891F9A1FD8
S1130770A11D680F791F8A1F911DA11D6A0F711D8C
S1130780811D911DA11D20D009F468943F912AE098
S1130790269F11243019305D3193DEF6CF01089580
S11307A0462F4770405D4193B3E00FD0C9F7F6CFB1
S11307B0462F4F70405D4A3318F0495D31FD405279
S11307C0419302D0A9F7EACFB4E0A695979587950F
S11307D077956795BA95C9F70097610571050895EE
S11307E09B01AC010A2E069457954795379527959A
S11307F0BA95C9F7620F731F841F951FA01D089532
S11308002F923F924F925F926F927F928F929F921C
S1130810AF92BF92CF92DF92EF92FF920F931F930A
S1130820CF93DF93CDB7DEB7CA1BDB0B0FB6F894BB
S1130830DEBF0FBECDBF09942A88398848885F84FB
S11308406E847D848C849B84AA84B984C884DF806C
S1130850EE80FD800C811B81AA81B981CE0FD11D50
S11308600FB6F894DEBF0FBECDBFED010895F89426
S1050870FFCFB4
S1130872C100CE00D500000000010000000000000D
S1130882DD0000000000000200000000E50000009E
S1130892000057652068617665207265616368654A
S11308A2642074686520676C6F72696F7573206E5B
S11308B2756D6265722C2025640A00416E6420699C
S11308C26E206D79206F70696E696F6E2C2074686A
S11308D2617420697320612076657279206E696380
S11308E265206E756D6265722100546869732069B2
S11308F273207472756C792061202A636C69636B4E
S11309022A206E6F696365206E756D6265720000E0
S9030000FC
