S0120000496E74657272757074732E73726563D2
S11300000C9434000C9451000C9451000C94510045
S11300100C9451000C9451000C9451000C94510018
S11300200C9451000C9451000C9451000C948E00CB
S11300300C9451000C9451000C9451000C945100F8
S11300400C9451000C9451000C94EC000C9451004D
S11300500C9451000C9451000C9451000C945100D8
S11300600C9451000C94510011241FBECFEFD4E026
S1130070DEBFCDBF11E0A0E0B1E0E6E6F2E002C0F1
S113008005900D92A03BB107D9F721E0A0EBB1E0B8
S113009001C01D92A63BB207E1F70E9453000C94E5
S11300A031010C9400000E94D4000E94E6008CE10F
S11300B091E00E9401010E9471008AE291E00E9495
S11300C001017894FFCF8FE391E00E940101EFE6F4
S11300D0F0E08081826080838EE491E00E940101DF
S11300E008958CE591E00E940101E1E8F0E080814F
S11300F084608083A8E8B0E08D919C91119784621C
S1130100946F11969C938E938081886080830E9463
S113011063008DE691E00E94010108951F920F9201
S11301200FB60F9211242F933F934F935F936F93C6
S11301307F938F939F93AF93BF93EF93FF9389E93B
S113014091E00E9401017894FF91EF91BF91AF91EA
S11301509F918F917F916F915F914F913F912F91DB
S11301600F900FBE0F901F9018958091C0008823A8
S1130170E4F78091C60090E008959091C00095FF47
S1130180FCCF8093C60080E090E008958EE091E07B
S11301909093B3018093B201089580E091E090932D
S11301A0B1018093B001089587E68093C400109252
S11301B0C5001092C00088E18093C10086E080935E
S11301C0C2000E94C6000E94CD000895E1ECF0E058
S11301D080818068808308951F920F920FB60F92DA
S11301E011248F93EF93FF93E6ECF0E080818083FA
S11301F07894FF91EF918F910F900FBE0F901F9005
S113020018950F931F93CF93DF93E091B201F09170
S1130210B301238121FF1BC08C01D0E0C0E0F801B1
S113022081918F016091B2017091B301DB01189645
S1130230ED91FC911997882331F00995892B79F375
S1130240DFEFCFEFECCF8AE00995892B19F08FEF20
S11302509FEF02C08D2F9C2FDF91CF911F910F91A3
S10902600895F894FFCF9D
S113026600000001000000000000B50000000000CE
S1130276000200000000BD0000000000537461721B
S113028674206F66206D61696E00456E64206F662A
S113029620736574757020696E206D61696E004502
S11302A66E61626C696E672074696D65720054696B
S11302B66D657220656E61626C6564005365747465
S11302C6696E672075702074696D65720054696D76
S11302D66572207361742075700044697361626C81
S11302E6696E672074696D65720054696D65722064
S11302F664697361626C6564000A0A496E746572A6
S1130306727570742070726F6365656465640A0043
S9030000FC
