:100000000C9434000C9451000C9451000C94510049
:100010000C9451000C9451000C9451000C9451001C
:100020000C9451000C9451000C9451000C94CC0091
:100030000C9451000C9451000C9451000C945100FC
:100040000C9451000C9451000C94BC010C94510080
:100050000C9451000C9451000C9451000C945100DC
:100060000C9451000C94510011241FBECFEFD4E02A
:10007000DEBFCDBF11E0A0E0B1E0ECEBF9E002C0E3
:1000800005900D92AE34B107D9F721E0AEE4B1E0AE
:1000900001C01D92A835B207E1F70E9453000C94ED
:1000A000DC040C9400000E94A4010E94B6010E948E
:1000B000B400789430E0C0E034C08C2F90E0FC01B4
:1000C000EE0FFF1FEE0FFF1FEE0FFF1FE81BF90BD8
:1000D000E050FF4F2281213019F58F0133962381A3
:1000E0002F9322812F9321812F93F80123812F9326
:1000F00001969F938F9381E391E09F938F930E944A
:10010000F701F80182810E949A00F80182838DB77D
:100110009EB708960FB6F8949EBF0FBE8DBF31E014
:10012000CF5FC33050F2313031F68AE090E00E9468
:100130000D02C0CF91E0813009F490E0892F08953D
:10014000FC0190818FEB890F8D3120F08FE9890FB1
:100150008D3118F420E2922790830895EFE6F0E0C5
:100160008081826080830895E1E8F0E0808184608E
:100170008083A8E8B0E08D919C9111978462946F80
:1001800011969C938E9380818860808384B1816076
:1001900084B90E94AE0008951F920F920FB60F927D
:1001A00011241F932F933F934F935F936F937F93EC
:1001B0008F939F93AF93BF93CF93DF93EF93FF936F
:1001C00010E020C0812F90E0EC01CC0FDD1FCC0FA0
:1001D000DD1FCC0FDD1FC81BD90BC050DF4FE881DE
:1001E000F981288139814A815B816C817D818E8191
:1001F00009956B837C838D839E838A810E949A00FC
:100200008A831F5F1330F0F27894FF91EF91DF91B2
:10021000CF91BF91AF919F918F917F916F915F919E
:100220004F913F912F911F910F900FBE0F901F90F4
:100230001895CF93DF93CDB7DEB727970FB6F89415
:10024000DEBF0FBECDBF29833A834B835C836D83B2
:100250007E838F8380914E0190914F01A091500138
:10026000B09151010196A11DB11D80934E01909353
:100270004F01A0935001B093510160914E017091D4
:100280004F01809150019091510127960FB6F8943B
:10029000DEBF0FBECDBFDF91CF910895CF93DF9327
:1002A000CDB7DEB727970FB6F894DEBF0FBECDBF30
:1002B00029833A834B835C836D837E838F8395B1DF
:1002C00081E0892785B960E070E0CB0127960FB601
:1002D000F894DEBF0FBECDBFDF91CF910895CF93CD
:1002E000DF93CDB7DEB727970FB6F894DEBF0FBE0A
:1002F000CDBF60E070E0CB0127960FB6F894DEBF6B
:100300000FBECDBFDF91CF9108958091C0008823AB
:10031000E4F78091C60090E008959091C00095FFA9
:10032000FCCF8093C60080E090E0089583E291E0E6
:100330009093550180935401089585E191E0909345
:10034000530180935201089587E68093C400109270
:10035000C5001092C00088E18093C10086E08093C0
:10036000C2000E9496010E949D010895E1ECF0E018
:1003700080818068808308951F920F920FB60F923C
:1003800011240F931F932F933F934F935F936F937A
:100390007F938F939F93AF93BF93EF93FF93CF93ED
:1003A000DF931F92CDB7DEB706EC10E0F801808135
:1003B0008983CE0101960E94A0008981F801808383
:1003C00078940F90DF91CF91FF91EF91BF91AF9112
:1003D0009F918F917F916F915F914F913F912F915D
:1003E0001F910F910F900FBE0F901F901895A0E0D6
:1003F000B0E0EDEFF1E00C94B504AE014B5F5F4F60
:10040000FA0161917191AF01809154019091550170
:100410000E941402E2E00C94D104609154017091A6
:1004200055010E940B040895ABE0B0E0EAE1F2E070
:100430000C94A5046C017B018A01FC0117821682D1
:10044000838181FFCCC1CE0101963C01F6019381ED
:10045000F70193FD859193FF81917F01882309F432
:10046000BAC1853239F493FD859193FF81917F0163
:10047000853229F4B60190E00E940B04E7CF912C5D
:10048000212C312CFFE1F315D8F08B3279F038F4C0
:10049000803279F08332A1F4232D20611DC08D328A
:1004A00061F0803369F4232D216016C0832D8260B2
:1004B000382EE32DE4603E2E2AC0F32DF8601DC0D7
:1004C00037FC2DC020ED280F2A3040F08E32B9F4D1
:1004D00036FC81C1232D2064322E19C036FE06C0A1
:1004E0008AE0989E200D1124922E11C0EAE02E9EE3
:1004F000200D1124222EF32DF0623F2E08C08C36E1
:1005000021F4832D8068382E02C0883641F4F7012B
:1005100093FD859193FF81917F018111B3CF982F36
:100520009F7D9554933028F40C5F1F4F9FE3998370
:100530000DC0833631F0833771F0833509F059C02F
:1005400021C0F801808189830E5F1F4F8824839426
:10055000912C530113C02801F2E04F0E511CF801F9
:10056000A080B18036FE03C0692D70E002C06FEF3D
:100570007FEFC5010E9400044C018201F32DFF773B
:100580003F2E16C0280122E0420E511CF801A08027
:10059000B18036FE03C0692D70E002C06FEF7FEFBF
:1005A000C5010E94F5034C01F32DF0683F2E820136
:1005B00033FC1BC0822D90E088169906B0F4B6017A
:1005C00080E290E00E940B042A94F4CFF50137FCFE
:1005D000859137FE81915F01B60190E00E940B0486
:1005E00021102A9421E0821A91088114910471F754
:1005F000E8C0843611F0893641F5F80137FE07C0AE
:1006000060817181828193810C5F1F4F08C060817E
:100610007181072E000C880B990B0E5F1F4FF32D75
:10062000FF763F2E97FF09C0909580957095619554
:100630007F4F8F4F9F4FF0683F2E2AE030E0A3019D
:100640000E944704882E861845C0853731F4232D33
:100650002F7EB22E2AE030E025C0932D997FB92E4F
:100660008F36C1F018F4883579F0B5C0803719F0AD
:10067000883721F0B0C0E92FE061BE2EB4FE0DC076
:10068000FB2DF460BF2E09C034FE0AC0292F26605E
:10069000B22E06C028E030E005C020E130E002C004
:1006A00020E132E0F801B7FE07C0608171818281EC
:1006B00093810C5F1F4F06C06081718180E090E0E4
:1006C0000E5F1F4FA3010E944704882E8618FB2D42
:1006D000FF773F2E36FE0DC0232D2E7FA22E8914CC
:1006E00058F434FE0BC032FC09C0832D8E7EA82E38
:1006F00005C0B82CA32C03C0B82C01C0B92CA4FE93
:100700000FC0FE01E80DF11D8081803321F49A2D88
:10071000997EA92E09C0A2FE06C0B394B39404C06A
:100720008A2D867809F0B394A3FC11C0A0FE06C000
:10073000B21488F4280C922C9B180EC0B21460F4EA
:10074000B60180E290E00E940B04B394F7CFB2149C
:1007500018F42B1802C0982C212CA4FE10C0B6014E
:1007600080E390E00E940B04A2FE17C0A1FC03C02E
:1007700088E790E002C088E590E0B6010CC08A2DC1
:10078000867859F0A1FE02C08BE201C080E2A7FC8E
:100790008DE2B60190E00E940B04891438F4B60192
:1007A00080E390E00E940B049A94F7CF8A94F301BF
:1007B000E80DF11D8081B60190E00E940B048110CC
:1007C000F5CF222009F442CEB60180E290E00E94EB
:1007D0000B042A94F6CFF6018681978102C08FEF31
:1007E0009FEF2B96E2E10C94C104FC01059061504F
:1007F00070400110D8F7809590958E0F9F1F089537
:10080000FC016150704001900110D8F780959095DF
:100810008E0F9F1F08950F931F93CF93DF93FB01BC
:10082000238121FD03C08FEF9FEF2CC022FF16C054
:1008300046815781248135814217530744F4A081B2
:10084000B1819D012F5F3F4F318320838C9326819F
:1008500037812F5F3F4F3783268314C08B01EC0114
:10086000FB010084F185E02D0995892BE1F6D80183
:1008700016968D919C911797019617969C938E933F
:100880001697CE01DF91CF911F910F910895FA0134
:10089000AA27283051F1203181F1E8946F936E7FBF
:1008A0006E5F7F4F8F4F9F4FAF4FB1E03ED0B4E0B0
:1008B0003CD0670F781F891F9A1FA11D680F791FF1
:1008C0008A1F911DA11D6A0F711D811D911DA11D02
:1008D00020D009F468943F912AE0269F1124301912
:1008E000305D3193DEF6CF010895462F4770405DAD
:1008F0004193B3E00FD0C9F7F6CF462F4F70405D5C
:100900004A3318F0495D31FD4052419302D0A9F7B6
:10091000EACFB4E0A6959795879577956795BA95B0
:10092000C9F700976105710508959B01AC010A2E76
:1009300006945795479537952795BA95C9F7620F4D
:10094000731F841F951FA01D08952F923F924F92F1
:100950005F926F927F928F929F92AF92BF92CF924F
:10096000DF92EF92FF920F931F93CF93DF93CDB758
:10097000DEB7CA1BDB0B0FB6F894DEBF0FBECDBFD0
:1009800009942A88398848885F846E847D848C84A1
:100990009B84AA84B984C884DF80EE80FD800C81AA
:1009A0001B81AA81B981CE0FD11D0FB6F894DEBF8D
:0C09B0000FBECDBFED010895F894FFCFFD
:1009BC00190100000000004E0100000000006F0152
:1009CC000000000000000000010000000000008595
:1009DC0001000000000002000000008D010000007A
:1009EC000043616C6C6261636B2564207472756585
:0E09FC002E20526573756C743A2025640A0033
:00000001FF
