:100000000C9434000C9451000C9451000C94510049
:100010000C9451000C9451000C9451000C9451001C
:100020000C9451000C9451000C9451000C9451000C
:100030000C9451000C9451000C9451000C945100FC
:100040000C9451000C9451000C9490000C945100AD
:100050000C9451000C9451000C9451000C945100DC
:100060000C9451000C94510011241FBECFEFD4E02A
:10007000DEBFCDBF11E0A0E0B1E0E0E5F1E002C0FD
:1000800005900D92AC31B107D9F721E0ACE1B1E0B8
:1000900001C01D92A232B207E1F70E9453000C94F6
:1000A000A6000C9400000E9478000E948A007894B8
:1000B000FFCF8091C0008823E4F78091C60090E0D4
:1000C00008959091C00095FFFCCF8093C60080E01A
:1000D00090E008958EE091E090931F0180931E01BF
:1000E000089580E091E090931D0180931C01089594
:1000F00087E68093C4001092C5001092C00088E18A
:100100008093C10086E08093C2000E946A000E9432
:1001100071000895E1ECF0E08081806880830895AB
:100120001F920F920FB60F9211248F93EF93FF93AC
:10013000E6ECF0E08081808380837894FF91EF91FA
:100140008F910F900FBE0F901F901895F894FFCFCE
:100150000000000100000000000059000000000045
:0C01600000020000000061000000000030
:00000001FF
