:1000000071C000008EC000008CC000008AC00000DB
:1000100088C0000086C0000084C0000082C00000CC
:1000200080C000007EC000007CC000007AC00000DC
:1000300078C0000076C0000074C0000072C00000EC
:1000400070C000006EC000006CC000006AC00000FC
:1000500068C0000066C0000064C0000062C000000C
:1000600060C000002AC100005CC000005AC000004F
:1000700058C0000056C0000054C0000052C000002C
:1000800050C000004EC000004CC000004AC000003C
:1000900048C0000046C0000044C0000042C000004C
:1000A00040C000003EC000003CC000003AC000005C
:1000B00038C0000036C0000034C0000032C000006C
:1000C00030C000002EC000002CC000002AC000007C
:1000D00028C0000026C0000024C0000022C000008C
:1000E00020C0000011241FBECFEFD1E2DEBFCDBF84
:1000F00000E00CBF12E0A0E0B2E0E0EAF3E000E0D4
:100100000BBF02C007900D92AE33B107D9F722E0C2
:10011000AEE3B2E001C01D92A434B207E1F733D0E0
:100120003DC16ECFCF93DF931F921F92CDB7DEB745
:100130009A83898389819A81FC018081813430F09E
:1001400089819A81FC0180818E3560F089819A8154
:10015000FC018081813688F089819A81FC0180814F
:100160008E3758F489819A81FC01908180E2292F91
:10017000282789819A81FC01208300000F900F902D
:10018000DF91CF910895CF93DF931F92CDB7DEB764
:100190000CD08CE192E0D2D07FD078941982898102
:1001A0008130E1F782E08983F9CFCF93DF93CDB738
:1001B000DEB784EC90E027E6FC01208385EC90E03C
:1001C000FC01108280EC90E0FC01108281EC90E058
:1001D00028E1FC01208382EC90E026E0FC012083F2
:1001E00005D012D00000DF91CF910895CF93DF9317
:1001F000CDB7DEB780E092E0909341028093400259
:100200000000DF91CF910895CF93DF93CDB7DEB794
:100210008EE092E090933F0280933E020000DF91D7
:10022000CF910895CF93DF931F921F92CDB7DEB782
:100230009A838983000080EC90E0FC018081882310
:10024000D4F786EC90E0FC018081882F90E00F903D
:100250000F90DF91CF910895CF93DF9300D0CDB76A
:10026000DEB789837B836A83000080EC90E0FC0129
:100270008081882F90E080729927892BB1F386ECDA
:1002800090E02981FC01208380E090E00F900F90A6
:100290000F90DF91CF910895CF93DF93CDB7DEB765
:1002A00081EC90E021EC30E0F90120812068FC0134
:1002B00020830000DF91CF9108951F920F9200904C
:1002C0005F000F92112400905B000F922F933F93D9
:1002D0004F935F936F937F938F939F93AF93BF934E
:1002E000EF93FF93CF93DF931F92CDB7DEB786ECEA
:1002F00090E0FC0180818983CE01019613DF86ECBA
:1003000090E02981FC012083789400000F90DF9118
:10031000CF91FF91EF91BF91AF919F918F917F917D
:100320006F915F914F913F912F910F9000925B00E1
:100330000F9000925F000F901F9018950F931F93DE
:10034000CF93DF93E0914002F0914102238121FF9E
:100350001BC08C01D0E0C0E0F80181918F01609159
:10036000400270914102DB011896ED91FC911997C2
:10037000882331F01995892B79F3DFEFCFEFECCF9C
:100380008AE01995892B19F08FEF9FEF02C08D2F0E
:100390009C2FDF91CF911F910F910895F894FFCF7B
:1003A00000000002000000002C010000000000001E
:1003B0000001000000000000120100000A68337014
:1003C0006431303031323020456D6265646465647B
:0E03D000204320737479726572202121210070
:00000001FF
