:100000000C9434000C943E000C943E000C943E0082
:100010000C943E000C943E000C943E000C943E0068
:100020000C943E000C943E000C943E000C943E0058
:100030000C943E000C943E000C943E000C943E0048
:100040000C943E000C943E000C943E000C943E0038
:100050000C943E000C943E000C943E000C943E0028
:100060000C943E000C943E0011241FBECFEFD4E050
:10007000DEBFCDBF0E9440000C9498000C9400009D
:100080008AB181608AB98AB182608AB98AB1846092
:100090008AB98AB18F7E8AB94C9B40C08BB18B7F65
:1000A0008BB98BB182608BB92FEF8DE292E2215038
:1000B00080409040E1F700C000008BB18D7F8BB98C
:1000C0008BB18B7F8BB98BB181608BB92FEF83EDB7
:1000D00090E3215080409040E1F700C000008BB1D8
:1000E00082608BB92FEF89E698E1215080409040E3
:1000F000E1F700C000008BB18E7F8BB98BB18D7F93
:100100008BB98BB184608BB92FEF8BE792E92150CB
:1001100080409040E1F700C00000BECF8BB18E7FE1
:100120008BB98BB18D7F8BB98BB184608BB9B4CF18
:04013000F894FFCF71
:00000001FF
